{"abi":[{"type":"constructor","inputs":[],"stateMutability":"nonpayable"},{"type":"function","name":"blsRegistry","inputs":[],"outputs":[{"name":"","type":"address","internalType":"contract IBLSApkRegistry"}],"stateMutability":"view"},{"type":"function","name":"fulfillRandomWords","inputs":[{"name":"_requestId","type":"uint256","internalType":"uint256"},{"name":"_randomWords","type":"uint256[]","internalType":"uint256[]"},{"name":"blockNumber","type":"uint256","internalType":"uint256"},{"name":"params","type":"tuple","internalType":"struct IBLSApkRegistry.SignatureCheckParams","components":[{"name":"nonSignerPubKeysG1","type":"tuple[]","internalType":"struct BN254.G1Point[]","components":[{"name":"X","type":"uint256","internalType":"uint256"},{"name":"Y","type":"uint256","internalType":"uint256"}]},{"name":"apkG2","type":"tuple","internalType":"struct BN254.G2Point","components":[{"name":"X","type":"uint256[2]","internalType":"uint256[2]"},{"name":"Y","type":"uint256[2]","internalType":"uint256[2]"}]},{"name":"sigma","type":"tuple","internalType":"struct BN254.G1Point","components":[{"name":"X","type":"uint256","internalType":"uint256"},{"name":"Y","type":"uint256","internalType":"uint256"}]},{"name":"totalEthStake","type":"uint256","internalType":"uint256"},{"name":"totalTokenStake","type":"uint256","internalType":"uint256"}]},{"name":"msgHash","type":"bytes32","internalType":"bytes32"}],"outputs":[],"stateMutability":"nonpayable"},{"type":"function","name":"getRequestStatus","inputs":[{"name":"_requestId","type":"uint256","internalType":"uint256"}],"outputs":[{"name":"isFulfilled","type":"bool","internalType":"bool"},{"name":"randomWords","type":"uint256[]","internalType":"uint256[]"}],"stateMutability":"view"},{"type":"function","name":"initialize","inputs":[{"name":"initialOwner","type":"address","internalType":"address"},{"name":"_nodeAddress","type":"address","internalType":"address"},{"name":"_blsRegistry","type":"address","internalType":"address"}],"outputs":[],"stateMutability":"nonpayable"},{"type":"function","name":"lastRequestId","inputs":[],"outputs":[{"name":"","type":"uint256","internalType":"uint256"}],"stateMutability":"view"},{"type":"function","name":"nodeAddress","inputs":[],"outputs":[{"name":"","type":"address","internalType":"address"}],"stateMutability":"view"},{"type":"function","name":"owner","inputs":[],"outputs":[{"name":"","type":"address","internalType":"address"}],"stateMutability":"view"},{"type":"function","name":"renounceOwnership","inputs":[],"outputs":[],"stateMutability":"nonpayable"},{"type":"function","name":"requestIds","inputs":[{"name":"","type":"uint256","internalType":"uint256"}],"outputs":[{"name":"","type":"uint256","internalType":"uint256"}],"stateMutability":"view"},{"type":"function","name":"requestMapping","inputs":[{"name":"","type":"uint256","internalType":"uint256"}],"outputs":[{"name":"isFulfilled","type":"bool","internalType":"bool"}],"stateMutability":"view"},{"type":"function","name":"requestRandomWords","inputs":[{"name":"_requestId","type":"uint256","internalType":"uint256"},{"name":"_numWords","type":"uint256","internalType":"uint256"}],"outputs":[],"stateMutability":"nonpayable"},{"type":"function","name":"setWhitelist","inputs":[{"name":"_nodeAddress","type":"address","internalType":"address"}],"outputs":[],"stateMutability":"nonpayable"},{"type":"function","name":"transferOwnership","inputs":[{"name":"newOwner","type":"address","internalType":"address"}],"outputs":[],"stateMutability":"nonpayable"},{"type":"event","name":"FillRandomWords","inputs":[{"name":"requestId","type":"uint256","indexed":false,"internalType":"uint256"},{"name":"randomWords","type":"uint256[]","indexed":false,"internalType":"uint256[]"}],"anonymous":false},{"type":"event","name":"Initialized","inputs":[{"name":"version","type":"uint64","indexed":false,"internalType":"uint64"}],"anonymous":false},{"type":"event","name":"OwnershipTransferred","inputs":[{"name":"previousOwner","type":"address","indexed":true,"internalType":"address"},{"name":"newOwner","type":"address","indexed":true,"internalType":"address"}],"anonymous":false},{"type":"event","name":"RequestSent","inputs":[{"name":"requestId","type":"uint256","indexed":false,"internalType":"uint256"},{"name":"numWords","type":"uint256","indexed":false,"internalType":"uint256"},{"name":"current","type":"address","indexed":false,"internalType":"address"}],"anonymous":false},{"type":"error","name":"InvalidInitialization","inputs":[]},{"type":"error","name":"NotInitializing","inputs":[]},{"type":"error","name":"OwnableInvalidOwner","inputs":[{"name":"owner","type":"address","internalType":"address"}]},{"type":"error","name":"OwnableUnauthorizedAccount","inputs":[{"name":"account","type":"address","internalType":"address"}]}],"bytecode":{"object":"0x608060405234801561000f575f5ffd5b5061001e61002360201b60201c565b61019e565b5f61003261012160201b60201c565b9050805f0160089054906101000a900460ff161561007c576040517ff92ee8a900000000000000000000000000000000000000000000000000000000815260040160405180910390fd5b67ffffffffffffffff8016815f015f9054906101000a900467ffffffffffffffff1667ffffffffffffffff161461011e5767ffffffffffffffff815f015f6101000a81548167ffffffffffffffff021916908367ffffffffffffffff1602179055507fc7f505b2f371ae2175ee4913f4499e1f2633a7b5936321eed1cdaeb6115181d267ffffffffffffffff6040516101159190610185565b60405180910390a15b50565b5f5f61013161013a60201b60201c565b90508091505090565b5f7ff0c57e16840df040f15088dc2f81fe391c3923bec73e23a9662efc9c229c6a005f1b905090565b5f67ffffffffffffffff82169050919050565b61017f81610163565b82525050565b5f6020820190506101985f830184610176565b92915050565b611756806101ab5f395ff3fe608060405234801561000f575f5ffd5b50600436106100cd575f3560e01c80638da5cb5b1161008a578063c0c53b8b11610064578063c0c53b8b146101e9578063d8a4676f14610205578063f2fde38b14610236578063fc2a88c314610252576100cd565b80638da5cb5b1461019157806393e4b880146101af578063be8e11df146101cd576100cd565b80631b739ef1146100d15780632aa8481f146100ed578063715018a61461010b57806382e215ab14610115578063854cff2f146101455780638796ba8c14610161575b5f5ffd5b6100eb60048036038101906100e69190610d03565b610270565b005b6100f5610391565b6040516101029190610d80565b60405180910390f35b6101136103b5565b005b61012f600480360381019061012a9190610d99565b6103c8565b60405161013c9190610dde565b60405180910390f35b61015f600480360381019061015a9190610e21565b6103ee565b005b61017b60048036038101906101769190610d99565b610438565b6040516101889190610e5b565b60405180910390f35b610199610458565b6040516101a69190610d80565b60405180910390f35b6101b761048d565b6040516101c49190610ecf565b60405180910390f35b6101e760048036038101906101e2919061108e565b6104b2565b005b61020360048036038101906101fe919061113d565b610685565b005b61021f600480360381019061021a9190610d99565b610887565b60405161022d929190611244565b60405180910390f35b610250600480360381019061024b9190610e21565b610917565b005b61025a61099b565b6040516102679190610e5b565b60405180910390f35b6102786109a1565b60405180604001604052805f151581526020015f67ffffffffffffffff8111156102a5576102a4610efc565b5b6040519080825280602002602001820160405280156102d35781602001602082028036833780820191505090505b5081525060025f8481526020019081526020015f205f820151815f015f6101000a81548160ff0219169083151502179055506020820151816001019080519060200190610321929190610c59565b50905050600382908060018154018082558091505060019003905f5260205f20015f9091909190915055816004819055507fe697eb68c0228bd7d4e553246a2a86e8402d0895e45092ef8ae87b4cfd29f01682823060405161038593929190611272565b60405180910390a15050565b5f5f9054906101000a900473ffffffffffffffffffffffffffffffffffffffff1681565b6103bd6109a1565b6103c65f610a28565b565b6002602052805f5260405f205f91509050805f015f9054906101000a900460ff16905081565b6103f66109a1565b805f5f6101000a81548173ffffffffffffffffffffffffffffffffffffffff021916908373ffffffffffffffffffffffffffffffffffffffff16021790555050565b60038181548110610447575f80fd5b905f5260205f20015f915090505481565b5f5f610462610af9565b9050805f015f9054906101000a900473ffffffffffffffffffffffffffffffffffffffff1691505090565b60015f9054906101000a900473ffffffffffffffffffffffffffffffffffffffff1681565b5f5f9054906101000a900473ffffffffffffffffffffffffffffffffffffffff1673ffffffffffffffffffffffffffffffffffffffff163373ffffffffffffffffffffffffffffffffffffffff1614610540576040517f08c379a000000000000000000000000000000000000000000000000000000000815260040161053790611301565b60405180910390fd5b60015f9054906101000a900473ffffffffffffffffffffffffffffffffffffffff1673ffffffffffffffffffffffffffffffffffffffff1663ab44321b8484846040518463ffffffff1660e01b815260040161059e9392919061159a565b606060405180830381865afa1580156105b9573d5f5f3e3d5ffd5b505050506040513d601f19601f820116820180604052508101906105dd919061164f565b505060405180604001604052806001151581526020018581525060025f8781526020019081526020015f205f820151815f015f6101000a81548160ff0219169083151502179055506020820151816001019080519060200190610641929190610c59565b509050507ff3cb4deb0441dd096356debf166f879d78cadc19e4b94053c8bea6d3940de93a858560405161067692919061168d565b60405180910390a15050505050565b5f61068e610b20565b90505f815f0160089054906101000a900460ff161590505f825f015f9054906101000a900467ffffffffffffffff1690505f5f8267ffffffffffffffff161480156106d65750825b90505f60018367ffffffffffffffff1614801561070957505f3073ffffffffffffffffffffffffffffffffffffffff163b145b905081158015610717575080155b1561074e576040517ff92ee8a900000000000000000000000000000000000000000000000000000000815260040160405180910390fd5b6001855f015f6101000a81548167ffffffffffffffff021916908367ffffffffffffffff160217905550831561079b576001855f0160086101000a81548160ff0219169083151502179055505b6107a488610b33565b865f5f6101000a81548173ffffffffffffffffffffffffffffffffffffffff021916908373ffffffffffffffffffffffffffffffffffffffff1602179055508560015f6101000a81548173ffffffffffffffffffffffffffffffffffffffff021916908373ffffffffffffffffffffffffffffffffffffffff160217905550831561087d575f855f0160086101000a81548160ff0219169083151502179055507fc7f505b2f371ae2175ee4913f4499e1f2633a7b5936321eed1cdaeb6115181d260016040516108749190611707565b60405180910390a15b5050505050505050565b5f606060025f8481526020019081526020015f205f015f9054906101000a900460ff1660025f8581526020019081526020015f206001018080548060200260200160405190810160405280929190818152602001828054801561090757602002820191905f5260205f20905b8154815260200190600101908083116108f3575b5050505050905091509150915091565b61091f6109a1565b5f73ffffffffffffffffffffffffffffffffffffffff168173ffffffffffffffffffffffffffffffffffffffff160361098f575f6040517f1e4fbdf70000000000000000000000000000000000000000000000000000000081526004016109869190610d80565b60405180910390fd5b61099881610a28565b50565b60045481565b6109a9610b47565b73ffffffffffffffffffffffffffffffffffffffff166109c7610458565b73ffffffffffffffffffffffffffffffffffffffff1614610a26576109ea610b47565b6040517f118cdaa7000000000000000000000000000000000000000000000000000000008152600401610a1d9190610d80565b60405180910390fd5b565b5f610a31610af9565b90505f815f015f9054906101000a900473ffffffffffffffffffffffffffffffffffffffff16905082825f015f6101000a81548173ffffffffffffffffffffffffffffffffffffffff021916908373ffffffffffffffffffffffffffffffffffffffff1602179055508273ffffffffffffffffffffffffffffffffffffffff168173ffffffffffffffffffffffffffffffffffffffff167f8be0079c531659141344cd1fd0a4f28419497f9722a3daafe3b4186f6b6457e060405160405180910390a3505050565b5f7f9016d09d72d40fdae2fd8ceac6b6234c7706214fd39c1cd1e609a0528c199300905090565b5f5f610b2a610b4e565b90508091505090565b610b3b610b77565b610b4481610bb7565b50565b5f33905090565b5f7ff0c57e16840df040f15088dc2f81fe391c3923bec73e23a9662efc9c229c6a005f1b905090565b610b7f610c3b565b610bb5576040517fd7e6bcf800000000000000000000000000000000000000000000000000000000815260040160405180910390fd5b565b610bbf610b77565b5f73ffffffffffffffffffffffffffffffffffffffff168173ffffffffffffffffffffffffffffffffffffffff1603610c2f575f6040517f1e4fbdf7000000000000000000000000000000000000000000000000000000008152600401610c269190610d80565b60405180910390fd5b610c3881610a28565b50565b5f610c44610b20565b5f0160089054906101000a900460ff16905090565b828054828255905f5260205f20908101928215610c93579160200282015b82811115610c92578251825591602001919060010190610c77565b5b509050610ca09190610ca4565b5090565b5b80821115610cbb575f815f905550600101610ca5565b5090565b5f604051905090565b5f5ffd5b5f5ffd5b5f819050919050565b610ce281610cd0565b8114610cec575f5ffd5b50565b5f81359050610cfd81610cd9565b92915050565b5f5f60408385031215610d1957610d18610cc8565b5b5f610d2685828601610cef565b9250506020610d3785828601610cef565b9150509250929050565b5f73ffffffffffffffffffffffffffffffffffffffff82169050919050565b5f610d6a82610d41565b9050919050565b610d7a81610d60565b82525050565b5f602082019050610d935f830184610d71565b92915050565b5f60208284031215610dae57610dad610cc8565b5b5f610dbb84828501610cef565b91505092915050565b5f8115159050919050565b610dd881610dc4565b82525050565b5f602082019050610df15f830184610dcf565b92915050565b610e0081610d60565b8114610e0a575f5ffd5b50565b5f81359050610e1b81610df7565b92915050565b5f60208284031215610e3657610e35610cc8565b5b5f610e4384828501610e0d565b91505092915050565b610e5581610cd0565b82525050565b5f602082019050610e6e5f830184610e4c565b92915050565b5f819050919050565b5f610e97610e92610e8d84610d41565b610e74565b610d41565b9050919050565b5f610ea882610e7d565b9050919050565b5f610eb982610e9e565b9050919050565b610ec981610eaf565b82525050565b5f602082019050610ee25f830184610ec0565b92915050565b5f5ffd5b5f601f19601f8301169050919050565b7f4e487b71000000000000000000000000000000000000000000000000000000005f52604160045260245ffd5b610f3282610eec565b810181811067ffffffffffffffff82111715610f5157610f50610efc565b5b80604052505050565b5f610f63610cbf565b9050610f6f8282610f29565b919050565b5f67ffffffffffffffff821115610f8e57610f8d610efc565b5b602082029050602081019050919050565b5f5ffd5b5f610fb5610fb084610f74565b610f5a565b90508083825260208201905060208402830185811115610fd857610fd7610f9f565b5b835b818110156110015780610fed8882610cef565b845260208401935050602081019050610fda565b5050509392505050565b5f82601f83011261101f5761101e610ee8565b5b813561102f848260208601610fa3565b91505092915050565b5f5ffd5b5f610120828403121561105257611051611038565b5b81905092915050565b5f819050919050565b61106d8161105b565b8114611077575f5ffd5b50565b5f8135905061108881611064565b92915050565b5f5f5f5f5f60a086880312156110a7576110a6610cc8565b5b5f6110b488828901610cef565b955050602086013567ffffffffffffffff8111156110d5576110d4610ccc565b5b6110e18882890161100b565b94505060406110f288828901610cef565b935050606086013567ffffffffffffffff81111561111357611112610ccc565b5b61111f8882890161103c565b92505060806111308882890161107a565b9150509295509295909350565b5f5f5f6060848603121561115457611153610cc8565b5b5f61116186828701610e0d565b935050602061117286828701610e0d565b925050604061118386828701610e0d565b9150509250925092565b5f81519050919050565b5f82825260208201905092915050565b5f819050602082019050919050565b6111bf81610cd0565b82525050565b5f6111d083836111b6565b60208301905092915050565b5f602082019050919050565b5f6111f28261118d565b6111fc8185611197565b9350611207836111a7565b805f5b8381101561123757815161121e88826111c5565b9750611229836111dc565b92505060018101905061120a565b5085935050505092915050565b5f6040820190506112575f830185610dcf565b818103602083015261126981846111e8565b90509392505050565b5f6060820190506112855f830186610e4c565b6112926020830185610e4c565b61129f6040830184610d71565b949350505050565b5f82825260208201905092915050565b7f5652462e6f6e6c7957686974654c6973740000000000000000000000000000005f82015250565b5f6112eb6011836112a7565b91506112f6826112b7565b602082019050919050565b5f6020820190508181035f830152611318816112df565b9050919050565b5f5ffd5b5f5ffd5b5f5ffd5b5f5f8335600160200384360303811261134757611346611327565b5b83810192508235915060208301925067ffffffffffffffff82111561136f5761136e61131f565b5b60408202360383131561138557611384611323565b5b509250929050565b5f82825260208201905092915050565b5f819050919050565b5f6113b46020840184610cef565b905092915050565b604082016113cc5f8301836113a6565b6113d85f8501826111b6565b506113e660208301836113a6565b6113f360208501826111b6565b50505050565b5f61140483836113bc565b60408301905092915050565b5f82905092915050565b5f604082019050919050565b5f611431838561138d565b935061143c8261139d565b805f5b85811015611474576114518284611410565b61145b88826113f9565b97506114668361141a565b92505060018101905061143f565b5085925050509392505050565b5f82905092915050565b5f82905092915050565b82818337505050565b6114aa60408383611495565b5050565b608082016114be5f83018361148b565b6114ca5f85018261149e565b506114d8604083018361148b565b6114e5604085018261149e565b50505050565b5f61012083016114fd5f84018461132b565b8583035f87015261150f838284611426565b925050506115206020840184611481565b61152d60208601826114ae565b5061153b60a0840184611410565b61154860a08601826113bc565b5061155660e08401846113a6565b61156360e08601826111b6565b506115726101008401846113a6565b6115806101008601826111b6565b508091505092915050565b6115948161105b565b82525050565b5f6060820190506115ad5f830186610e4c565b81810360208301526115bf81856114eb565b90506115ce604083018461158b565b949350505050565b5f5ffd5b5f815190506115e881610cd9565b92915050565b5f60408284031215611603576116026115d6565b5b61160d6040610f5a565b90505f61161c848285016115da565b5f83015250602061162f848285016115da565b60208301525092915050565b5f8151905061164981611064565b92915050565b5f5f6060838503121561166557611664610cc8565b5b5f611672858286016115ee565b92505060406116838582860161163b565b9150509250929050565b5f6040820190506116a05f830185610e4c565b81810360208301526116b281846111e8565b90509392505050565b5f819050919050565b5f67ffffffffffffffff82169050919050565b5f6116f16116ec6116e7846116bb565b610e74565b6116c4565b9050919050565b611701816116d7565b82525050565b5f60208201905061171a5f8301846116f8565b9291505056fea26469706673582212207c2ece28dc4bc901d26030ec65b9cc96b41a779dd5ea48d580836bdeecfeeca564736f6c634300081d0033","linkReferences":{}},"methodIdentifiers":{"blsRegistry()":"93e4b880","fulfillRandomWords(uint256,uint256[],uint256,((uint256,uint256)[],(uint256[2],uint256[2]),(uint256,uint256),uint256,uint256),bytes32)":"be8e11df","getRequestStatus(uint256)":"d8a4676f","initialize(address,address,address)":"c0c53b8b","lastRequestId()":"fc2a88c3","nodeAddress()":"2aa8481f","owner()":"8da5cb5b","renounceOwnership()":"715018a6","requestIds(uint256)":"8796ba8c","requestMapping(uint256)":"82e215ab","requestRandomWords(uint256,uint256)":"1b739ef1","setWhitelist(address)":"854cff2f","transferOwnership(address)":"f2fde38b"},"id":50}