{"abi":[{"type":"function","name":"createProxy","inputs":[{"name":"implementation","type":"address","internalType":"address"},{"name":"nodeAddress","type":"address","internalType":"address"},{"name":"blsRegistry","type":"address","internalType":"address"}],"outputs":[{"name":"","type":"address","internalType":"address"}],"stateMutability":"nonpayable"},{"type":"event","name":"ProxyCreated","inputs":[{"name":"mintProxyAddress","type":"address","indexed":false,"internalType":"address"}],"anonymous":false},{"type":"error","name":"FailedDeployment","inputs":[]},{"type":"error","name":"InsufficientBalance","inputs":[{"name":"balance","type":"uint256","internalType":"uint256"},{"name":"needed","type":"uint256","internalType":"uint256"}]}],"bytecode":{"object":"0x6080604052348015600e575f5ffd5b5061039c8061001c5f395ff3fe608060405234801561000f575f5ffd5b5060043610610029575f3560e01c8063a556c07e1461002d575b5f5ffd5b6100476004803603810190610042919061027a565b61005d565b60405161005491906102d9565b60405180910390f35b5f5f61006885610115565b90508073ffffffffffffffffffffffffffffffffffffffff1663c0c53b8b3386866040518463ffffffff1660e01b81526004016100a7939291906102f2565b5f604051808303815f87803b1580156100be575f5ffd5b505af11580156100d0573d5f5f3e3d5ffd5b505050507efffc2da0b561cae30d9826d37709e9421c4725faebc226cbbb7ef5fc5e73498160405161010291906102d9565b60405180910390a1809150509392505050565b5f610120825f610127565b9050919050565b5f8147101561016f5747826040517fcf47918100000000000000000000000000000000000000000000000000000000815260040161016692919061033f565b60405180910390fd5b763d602d80600a3d3981f3363d3d373d3d3d363d730000008360601b60e81c175f526e5af43d82803e903d91602b57fd5bf38360781b176020526037600983f090505f73ffffffffffffffffffffffffffffffffffffffff168173ffffffffffffffffffffffffffffffffffffffff1603610216576040517fb06ebf3d00000000000000000000000000000000000000000000000000000000815260040160405180910390fd5b92915050565b5f5ffd5b5f73ffffffffffffffffffffffffffffffffffffffff82169050919050565b5f61024982610220565b9050919050565b6102598161023f565b8114610263575f5ffd5b50565b5f8135905061027481610250565b92915050565b5f5f5f606084860312156102915761029061021c565b5b5f61029e86828701610266565b93505060206102af86828701610266565b92505060406102c086828701610266565b9150509250925092565b6102d38161023f565b82525050565b5f6020820190506102ec5f8301846102ca565b92915050565b5f6060820190506103055f8301866102ca565b61031260208301856102ca565b61031f60408301846102ca565b949350505050565b5f819050919050565b61033981610327565b82525050565b5f6040820190506103525f830185610330565b61035f6020830184610330565b939250505056fea2646970667358221220ec7993e3583e6a71ada30fabc1589c80b773bc60998d0983910d8561f044242d64736f6c634300081d0033","linkReferences":{}},"methodIdentifiers":{"createProxy(address,address,address)":"a556c07e"},"id":47}